:100000000C9449000C94BB0A0C9471000C94710080
:100010000C942F090C9471000C9471000C947100D5
:100020000C9471000C9471000C945F090C94710095
:100030000C9471000C941A0B0C9471000C947100C8
:100040000C9471000C9471000C9471000C9471006C
:100050000C947100036EDB363D9A9999993DABAAD9
:10006000AA2A3E000000803F072C7AA5BA6CC590F2
:10007000DA3B9365FC8BBC53F810FD3C5692834DE4
:10008000BD879D3AB63DCBC9BF5BBE73DA0FC93F92
:10009000070C11241FBECFE5D8E0DEBFCDBF10E0B6
:1000A000A0E6B0E0E4EAFFE102C005900D92A838B6
:1000B000B107D9F721E0A8E8B0E001C01D92AB3943
:1000C000B207E1F710E0C9E4D0E004C02197FE01D7
:1000D0000E94A40FC834D107C9F70E9484040C946D
:1000E000D00F0C9400002AB128692AB920B52668DF
:1000F00020BDDC01CB01880F991FAA1FBB1F880FF1
:10010000991FAA1FBB1F9C01AD01220F331F441F63
:10011000551F220F331F441F551F60E074E284EF08
:1001200090E00E94630F8FEF820F89B9DA01C90155
:100130000197A109B109892F9A2FAB2FBB2780BD49
:1001400008958CB95D9BFECF0895CF93DF93EC01AA
:100150008881882331F021960E94A1008991811124
:10016000FBCFDF91CF91089511B888E480B908954D
:1001700094EA96BF06B607FEFDCF91B1987F903105
:1001800071F483B984E886BF06B607FEFDCF81B15E
:10019000887F803431F0803231F083E0089580E050
:1001A000089581E0089582E0089584E986BF06B647
:1001B00004FCFDCF08951F93CF93DF93182FC4EA5B
:1001C000D4E8C6BF06B607FEFDCF91B1987F983040
:1001D000C1F713B9D6BF06B607FEFDCF91B1987F20
:1001E000983119F00E94D500ECCFDF91CF911F918B
:1001F000089583B984E886BF06B607FEFDCF81B1B6
:10020000887F883221F0803321F082E0089580E0F9
:10021000089581E0089584EC86BF06B607FEFDCF01
:1002200083B1089584E886BF06B607FEFDCF83B18B
:100230000895CF93DF93EC012FEF82E597E02150F3
:1002400080409040E1F700C0000088810E94DB0000
:1002500089E10E94F90087E00E94F9000E94D50020
:1002600088810E94DB008BE60E94F90081E00E94F9
:10027000F9000E94D50088810E94DB008AE10E947B
:10028000F90080E00E94F9000E94D50088810E9458
:10029000DB008BE10E94F90080E00E94F9000E94DF
:1002A000D50088810E94DB0088E30E94F90081E08C
:1002B0000E94F9000E94D50088810E94DB008CE139
:1002C0000E94F90088E00E94F9000E94D500DF91A9
:1002D000CF910895CF93DF93EC0188810E94DB00DA
:1002E0008BE30E94F9008A810E94B800DF91CF91D0
:1002F00008951F93CF93DF93EC010E946A010E943F
:100300000B01182F0E940B01612F70E0762F6627DA
:10031000682B719561957109072E000C880B990B5C
:100320000E948B0D6C837D838E839F830E940B01C3
:10033000182F0E940B01612F70E0762F6627682B23
:10034000719561957109072E000C880B990B0E941D
:100350008B0D688779878A879B870E940B01182FEE
:100360000E940B01612F70E0762F6627682B719534
:1003700061957109072E000C880B990B0E948B0D5B
:100380006C877D878E879F870E940B01182F0E94A4
:100390000B01612F70E0762F6627682B072E000C6B
:1003A000880B990B0E948B0D688B798B8A8B9B8BAA
:1003B0000E940B01182F0E940B01612F70E0762F15
:1003C0006627682B719561957109072E000C880BC3
:1003D000990B0E948B0D6C8B7D8B8E8B9F8B0E945B
:1003E0000B01182F0E940B01612F70E0762F6627FA
:1003F000682B719561957109072E000C880B990B7C
:100400000E948B0D688F798F8A8F9B8F0E940B01C2
:10041000182F0E941201612F70E0762F6627682B3B
:10042000719561957109072E000C880B990B0E943C
:100430008B0D6C8F7D8F8E8F9F8F0E94D500DF91EB
:10044000CF911F9108954F925F926F927F928F92FA
:100450009F92AF92BF92CF92DF92EF92FF920F9353
:100460001F93CF93DF93CDB7DEB72C970FB6F894D9
:10047000DEBF0FBECDBF8C010E94790120E030E0CD
:1004800040E05EE3D80114966D917D918D919C9131
:1004900017970E949B0E6D837E838F83988760934E
:1004A000250170932601809327019093280120E075
:1004B00030E040E05EE3F8016085718582859385D8
:1004C0000E949B0E69837A838B839C8360932101B6
:1004D00070932201809323019093240120E030E067
:1004E00040E05EE3D8011C966D917D918D919C91C9
:1004F0001F970E949B0E69877A878B879C876093E2
:100500001D0170931E0180931F0190932001F8013B
:1005100060A571A582A593A50E948B0D9B01AC01DE
:10052000D80154966D917D918D919C9157970E9421
:10053000540C20E030E043E053E40E94E10C4B0116
:100540005C016093150170931601809317019093DD
:100550001801F80164A175A186A197A10E948B0DD5
:100560009B01AC01D80158966D917D918D919C9124
:100570005B970E94540C20E030E043E053E40E947B
:10058000E10C609311017093120180931301909319
:100590001401F80164A575A586A597A50E948B0D89
:1005A0009B01AC01D8015C966D917D918D919C91E0
:1005B0005F970E94540C20E030E043E053E40E9437
:1005C000E10C2B013C0160930D0170930E018093AF
:1005D0000F019093100184B5883C58F424B58091A4
:1005E000990190919A01820F911D90939A018093A5
:1005F00099016091990170919A01072E000C880B66
:10060000990B20E231EA47E050E00E94850FCA01D1
:10061000B9010E948B0D6B017C01609309017093FD
:100620000A0180930B0190930C0110929A01109291
:1006300099019B01AC01C301B2010E949B0EF8011C
:1006400020A131A142A153A10E94550C2B013C01D4
:10065000D80190966D937D938D939C939397A7016A
:100660009601C501B4010E949B0E9B01AC016091F3
:10067000190170911A0180911B0190911C010E9437
:10068000550C6093190170931A0180931B0190938C
:100690001C0129813A814B815C81CA01B9010E9408
:1006A0009B0E6B017C012D813E814F815885CA01D3
:1006B000B9010E949B0E4B015C01A7019601C50187
:1006C000B4010E94550C6B017C0129853A854B854C
:1006D0005C85CA01B9010E949B0E9B01AC01C70158
:1006E000B6010E94550C0E940E0F9B01AC0169815E
:1006F0007A818B819C810E94E10C0E94C10C21EEC9
:100700003EE245E652E40E949B0E6B017C01809123
:100710002A018823F1F02FE832EC45E75FE3C301BB
:10072000B2010E949B0E4B015C012AE037ED43E2CF
:100730005DE3C701B6010E949B0E9B01AC01C501A0
:10074000B4010E94550CF80160A371A382A393A386
:100750000AC0D8019096CD92DD92ED92FC929397CB
:1007600081E080932A01F80160A171A182A193A187
:100770002C960FB6F894DEBF0FBECDBFDF91CF91A0
:100780001F910F91FF90EF90DF90CF90BF90AF90AF
:100790009F908F907F906F905F904F900895CF9231
:1007A000DF92EF92FF920F931F93CF93DF93EC01B1
:1007B00008EC10E0CE010E94790168A579A58AA510
:1007C0009BA50E948B0D2C893D894E895F890E94D3
:1007D000550C0E94530D68A779A78AA79BA76CA107
:1007E0007DA18EA19FA10E948B0D288D398D4A8DF0
:1007F0005B8D0E94550C0E94530D6CA37DA38EA3AC
:100800009FA36CA57DA58EA59FA50E948B0D2C8D09
:100810003D8D4E8D5F8D0E94550C0E94530D6CA72F
:100820007DA78EA79FA78FE99FE00197F1F700C0F2
:1008300000000150110909F0BDCF68A579A58AA56E
:100840009BA50F2EF8ECCF2ED12CE12CF12CF02D06
:10085000A70196010E94850F28A739A74AA75BA781
:100860006CA17DA18EA19FA1A70196010E94850F79
:100870002CA33DA34EA35FA36CA57DA58EA59FA52C
:10088000A70196010E94850F2CA73DA74EA75FA741
:10089000DF91CF911F910F91FF90EF90DF90CF905C
:1008A00008958D9A8FB5826F8FBD8EB58B618EBD89
:1008B00087E893E197BD86BD089586B597B5C29741
:1008C0009BBD8ABD2FEF8BE49DE12150804090407D
:1008D000E1F700C0000086B597B59BBD8ABD0895BD
:1008E00086B597B5845F91409BBD8ABD2FEF8BE4A1
:1008F0009DE1215080409040E1F700C0000086B5A6
:1009000097B59BBD8ABD0895CF93DF93CDB7DEB772
:10091000CE56D1090FB6F894DEBF0FBECDBF789486
:100920008FEF84BBB8988A988BB780648BBF85B7EC
:10093000816085BF65961CAE1DAE1EAE1FAE65976D
:1009400069961CAE1DAE1EAE1FAE69976D961CAEAD
:100950001DAE1EAE1FAE6D97A1961CAE1DAE1EAE97
:100960001FAEA19780ED90E09AAB89AB81ED90E04E
:100970009CAB8BAB19A21AA21BA21CA21DA21EA289
:100980001FA218A619A61AA61BA61CA61DA61EA65F
:100990001FA618AA82ED90E09A83898383ED90E0E8
:1009A0009C838B8360E076E980E090E00E94730096
:1009B0000E94B400CE01C1960E941901CE01019699
:1009C0000E9419010E94510489B7826889BF85B5C8
:1009D0008B6085BD88EC83BD83B78A6083BF8CE95B
:1009E0008CBFCE01C1960E94CF03CE0101960E941A
:1009F000CF0314BC0F2EF4ED2F2EF0E03F2EF02D80
:100A000002EB10E0609160007091610080E090E086
:100A10000E94890D2DEC3CEC4CE351E40E949B0EAE
:100A20000E945A0D7093F7006093F600C090F80092
:100A3000D090F900E090FA00F090FB0080E090E0A8
:100A40000E94890DA70196010E94960E181644F582
:100A500015BA95B321E030E00090A90002C0220F42
:100A6000331F0A94E2F7822F8095892385BB25B333
:100A700081E090E00090A80002C0880F991F0A94BE
:100A8000E2F7822B85BB8FE891E00197F1F700C078
:100A9000000015BAAFE8B1E01197F1F700C000000F
:100AA000C090F800D090F900E090FA00F090FB00C0
:100AB0006091F6007091F70080E090E00E94890D4F
:100AC000A70196010E94DC0C88239CF515BA25B37A
:100AD00081E090E00090A90002C0880F991F0A945D
:100AE000E2F7822B85BB25B381E090E00090A8005F
:100AF00002C0880F991F0A94E2F7822B85BBEFE8AA
:100B0000F1E03197F1F700C0000095B321E030E04B
:100B10000090A80002C0220F331F0A94E2F7822F30
:100B20008095892385BB8FE891E00197F1F700C09C
:100B3000000015BACE01C1960E9423026B017C0110
:100B4000CE0101960E942302A5966CAF7DAF8EAFB9
:100B50009FAFA5978091F8009091F900A091FA00BD
:100B6000B091FB00A091F600B091F700AB96BFAF3B
:100B7000AEAFAB978091F8009091F900A091FA0088
:100B8000B091FB00AF968CAF9DAFAEAFBFAFAF974C
:100B900060916200709163008091640090916500A3
:100BA0000E94530D072E000C880B990B0E948B0D91
:100BB0009B01AC01C701B6010E94540C2B013C0102
:100BC000D1016D937D938D939C93139718962D91DE
:100BD0003D914D915C911B970E949B0EA9966CAF25
:100BE0007DAF8EAF9FAFA997F101248135814681FA
:100BF0005781C301B2010E949B0E20918C0030915D
:100C00008D0040918E0050918F000E94550C6B0119
:100C10007C0160938C0070938D0080938E00909384
:100C20008F0020E030E048EC53E40E94960E181646
:100C30006CF480E090E0A8ECB3E480938C00909397
:100C40008D00A0938E00B0938F0016C020E030E09E
:100C500048EC53ECC701B6010E94DC0C882364F415
:100C600080E090E0A8ECB3EC80938C0090938D0032
:100C7000A0938E00B0938F0020918800309189005E
:100C800040918A0050918B00C301B2010E94540C24
:100C9000D1011C962D913D914D915C911F970E9421
:100CA0009B0E9B01AC0180908C0090908D00A090D9
:100CB0008E00B0908F00A9966CAD7DAD8EAD9FADCE
:100CC000A9970E94550CA50194010E94550C6B0137
:100CD0007C01F101648B758B868B978B20E030E073
:100CE00048EC53E40E94960E181654F480E090E00D
:100CF000A8ECB3E4F101848B958BA68BB78B34C041
:100D000020E030E048EC53ECC701B6010E94DC0C57
:100D100088234CF40F2EC12CD12CF8ECEF2EF3ECE1
:100D2000FF2EF02D5EC0D1015496CD90DD90ED9058
:100D3000FC90579720E030E040EA50E4C701B6014C
:100D40000E94DC0C882384F420E030E040EA50EC80
:100D5000C701B6010E94960E181634F4F101148AE8
:100D6000158A168A178A97C0D1015496CD90DD90C6
:100D7000ED90FC90579720E030E0A901C701B60143
:100D80000E94960E181624F520E030E040E151E470
:100D9000C701B6010E94550C9B01AC0160E070E0F8
:100DA00080E89FE30E94E10C20E030EE4BEA55E43E
:100DB0000E949B0E9B01AC0160E070E88AEC93E41A
:100DC0000E94540CF101648B758B868B978B2EC01F
:100DD00020E030E0A901C701B6010E94DC0C8823A5
:100DE0002CF520E030E040E151E4C701B6010E945B
:100DF000540C9B01AC0160E070E080E89FE30E942E
:100E0000E10C20E030EE4BEA55E40E949B0E9B0182
:100E1000AC0160E070E88AEC93EC0E94540CD101C4
:100E200054966D937D938D939C935797F101C4884D
:100E3000D588E688F78820E030E0A901C701B6012F
:100E40000E94960E181684F4A701960160E070E0E7
:100E500088EC93E40E94540CD10150966D937D93DD
:100E60008D939C9353971EC020E030E0A901C701E9
:100E7000B6010E94DC0C882374F4A701960160E09F
:100E800070E088EC93EC0E94540CF101608B718B44
:100E9000828B938B07C0D10150961D921D921D929B
:100EA0001C925397F10160897189828993890E940C
:100EB000530DD1015B967C936E935A9780912B01D1
:100EC00090912C01A0912D01B0912E01BC01CD017A
:100ED00090580E94530D072E000C880B990B0E940E
:100EE0008B0D9B01AC01A5966CAD7DAD8EAD9FAD1C
:100EF000A5970E94540C6B017C01F80160837183FB
:100F00008283938320853185428553850E949B0E81
:100F1000A5966CAF7DAF8EAF9FAFA597D801149605
:100F20002D913D914D915C911797C701B6010E949B
:100F30009B0E9B01AC01C501B4010E94550C4B01F5
:100F40005C0160938C0070938D0080938E00909371
:100F50008F0020E030E048EC53E40E94960E181613
:100F60006CF480E090E0A8ECB3E480938C00909364
:100F70008D00A0938E00B0938F0016C020E030E06B
:100F800048EC53ECC501B4010E94DC0C882364F4E6
:100F900080E090E0A8ECB3EC80938C0090938D00FF
:100FA000A0938E00B0938F00A3019201C701B601F8
:100FB0000E94540CF80124853585468557850E948A
:100FC0009B0E9B01AC01C0928800D0928900E092F8
:100FD0008A00F0928B00A5966CAD7DAD8EAD9FAD75
:100FE000A5970E94550C20918C0030918D00409166
:100FF0008E0050918F000E94550C4B015C01D8016E
:1010000054966D937D938D939C93579720E030E099
:1010100048EC53E40E94960E181654F480E090E0D9
:10102000A8ECB3E4F801848B958BA68BB78B34C006
:1010300020E030E048EC53ECC501B4010E94DC0C28
:1010400088234CF40F2E812C912CF8ECAF2EF3EC6E
:10105000BF2EF02D5EC0D80154968D909D90AD901E
:10106000BC90579720E030E040EA50E4C501B4015D
:101070000E94DC0C882384F420E030E040EA50EC4D
:10108000C501B4010E94960E181634F4F801148AB2
:10109000158A168A178A97C0D80154968D909D900C
:1010A000AD90BC90579720E030E0A901C501B40194
:1010B0000E94960E181624F520E030E040E151E43D
:1010C000C501B4010E94550C9B01AC0160E070E0C9
:1010D00080E89FE30E94E10C20E030EE4BEA55E40B
:1010E0000E949B0E9B01AC0160E070E88AEC93E4E7
:1010F0000E94540CF801648B758B868B978B2EC0E5
:1011000020E030E0A901C501B4010E94DC0C882375
:101110002CF520E030E040E151E4C501B4010E942B
:10112000540C9B01AC0160E070E080E89FE30E94FA
:10113000E10C20E030EE4BEA55E40E949B0E9B014F
:10114000AC0160E070E88AEC93EC0E94540CD8018A
:1011500054966D937D938D939C935797F801848853
:101160009588A688B78820E030E0A901C501B401C0
:101170000E94960E181684F4A501940160E070E0B8
:1011800088EC93E40E94540CD80150966D937D93A3
:101190008D939C9353971EC020E030E0A901C501B8
:1011A000B4010E94DC0C882374F4A501940160E072
:1011B00070E088EC93EC0E94540CF801608B718B0A
:1011C000828B938B07C0D80150961D921D921D9261
:1011D0001C925397F80160897189828993890E94D2
:1011E000530DD8015B967C936E935A97C301B2015D
:1011F0000E94530D6F5F7F4F6330710508F002CC82
:10120000C701B6010E94530D6F5F7F4F63307105B8
:1012100008F0F8CBAB96EEADFFADAB97BF0180E029
:1012200090E00E94890DAF962CAD3DAD4EAD5FAD07
:10123000AF970E94540C0E94530D672B09F0E2CB2C
:101240008091050190910601019709F0DBCB81E3C4
:101250000E94A1001092060110920501D3CB1F92AB
:101260000F920FB60F9211248F939F93AF93BF935A
:101270008091990190919A0188539F4F90939A0180
:10128000809399018091FD009091FE00A091FF0054
:10129000B09100010196A11DB11D8093FD009093B6
:1012A000FE00A093FF00B093000114BCBF91AF916A
:1012B0009F918F910F900FBE0F901F9018951F92C6
:1012C0000F920FB60F9211242F933F934F935F937A
:1012D0006F937F938F939F93AF93BF93EF93FF93FE
:1012E00080912901853120F48F5F8093290132C1DB
:1012F000E4EDF0E0848D958D0196958F848F268D99
:10130000378D281739074CF5158E148E828D938DE5
:10131000978F868F9923A4F425B381E090E0018C08
:1013200002C0880F991F0A94E2F78095822385BB3B
:10133000868D978D919581959109978F868F2CC079
:1013400025B381E090E00090ED0002C0880F991F66
:101350000A94E2F7822B85BB1FC08130910569F4A6
:1013600025B381E090E00090EC0002C0880F991F47
:101370000A94E2F7822B85BB0FC0029769F425B36C
:1013800081E090E00090EC0002C0880F991F0A9461
:10139000E2F78095822385BBE2EBF0E0848D958DAA
:1013A0000196958F848F268D378D281739074CF538
:1013B000158E148E828D938D978F868F9923A4F42A
:1013C00025B381E090E0018C02C0880F991F0A9438
:1013D000E2F78095822385BB868D978D91958195C7
:1013E0009109978F868F2CC025B381E090E0009003
:1013F000CB0002C0880F991F0A94E2F7822B85BBAD
:101400001FC08130910569F425B381E090E0009020
:10141000CA0002C0880F991F0A94E2F7822B85BB8D
:101420000FC0029769F425B381E090E00090CA00F4
:1014300002C0880F991F0A94E2F78095822385BB2A
:10144000E0E9F0E0848D958D0196958F848F268D4F
:10145000378D281739075CF5158E148E828D938D84
:10146000978F868F91A380A39923A4F425B381E05D
:1014700090E0018C02C0880F991F0A94E2F78095D2
:10148000822385BB868D978D919581959109978F44
:10149000868F60C025B381E090E00090A90002C073
:1014A000880F991F0A94E2F7822B85BB53C08130C5
:1014B000910569F425B381E090E00090A80002C096
:1014C000880F991F0A94E2F7822B85BB43C00297CD
:1014D00009F040C025B3E0E9F0E081E090E0008C45
:1014E00002C0880F991F0A94E2F78095822385BB7A
:1014F00080A191A118161906BCF42EEA37E441E246
:101500005DE360910101709102018091030190916E
:1015100004010E94540C60930101709302018093B6
:1015200003019093040116C02EEA37E441E25DE323
:101530006091010170910201809103019091040179
:101540000E94550C60930101709302018093030186
:1015500090930401FF91EF91BF91AF919F918F9173
:101560007F916F915F914F913F912F910F900FBE9F
:101570000F901F9018951F920F920FB60F92112483
:101580002F933F934F935F936F937F938F939F938B
:10159000AF93BF93EF93FF9396B380B3917082FBA9
:1015A000222720F981E08227981306C086B390B3E2
:1015B00094708170981317C06091F8007091F900D1
:1015C0008091FA009091FB0020E030E040E85FE37A
:1015D0000E94550C6093F8007093F9008093FA0014
:1015E0009093FB0016C06091F8007091F900809113
:1015F000FA009091FB0020E030E040E85FE30E94B9
:10160000540C6093F8007093F9008093FA00909363
:10161000FB00FF91EF91BF91AF919F918F917F91CF
:101620006F915F914F913F912F910F900FBE0F904F
:101630001F9018951F920F920FB60F9211242F939F
:101640003F934F935F936F937F938F939F93AF934A
:10165000BF93EF93FF932CB1822F90E0909398016A
:10166000809397012093FC008736910551F486E61C
:1016700090E00E94A50010929801109297010E949C
:10168000700480919701909198018237910551F4EF
:1016900085E790E00E94A5001092980110929701B2
:1016A0000E945D0480919701909198018E3291057E
:1016B00009F081C0E0919501F0919601E15DFE4F46
:1016C00010828FE291E00E94AA0F9093080180930C
:1016D000070120919301309194012115310511F5F5
:1016E0008535910534F085E590E09093080180936D
:1016F00007016091070170910801072E000C880B0B
:10170000990B0E948B0D609362007093630080932D
:1017100064009093650081E090E090939401809341
:10172000930140C02130310561F5883491053CF0CA
:1017300088E490E0909308018093070109C0893EF6
:101740009F4F34F488EE9FEF909308018093070138
:101750006091070170910801072E000C880B990B0E
:101760000E948B0D60932B0170932C0180932D01AF
:1017700090932E0182E090E09093940180939301E6
:1017800011C02230310571F49093610080936000A4
:10179000109294011092930181E090E090930601E1
:1017A0008093050110920801109207011092960192
:1017B0001092950117C09C01205331092A30310540
:1017C00018F08D32910571F42091950130919601B8
:1017D000F901E15DFE4F80832F5F3F4F309396010B
:1017E000209395011092980110929701FF91EF912B
:1017F000BF91AF919F918F917F916F915F914F9129
:101800003F912F910F900FBE0F901F901895E4ED10
:10181000F0E0148215821682178280E090E0A0EA40
:10182000B0E480879187A287B387148615861686D1
:10183000178627E0208F26E0218F138E128E158EBB
:10184000148E178E168EE2EBF0E01482158216824B
:10185000178280879187A287B3871486158616869C
:10186000178625E0208F24E0218F138E128E158E8F
:10187000148E178E168EE0E9F0E01482158216821F
:10188000178280879187A287B3871486158616866C
:10189000178683E0808F82E0818F138E128E158EE3
:1018A000148E178E168E08955058BB27AA270E94B3
:1018B0006C0C0C945C0E0E944E0E38F00E94550E7B
:1018C00020F039F49F3F19F426F40C94100E0EF416
:1018D000E095E7FB0C940A0EE92F0E946D0E58F379
:1018E000BA17620773078407950720F079F4A6F505
:1018F0000C948F0E0EF4E0950B2EBA2FA02D0B0139
:10190000B90190010C01CA01A0011124FF27591B44
:1019100099F0593F50F4503E68F11A16F040A22F4A
:10192000232F342F4427585FF3CF469537952795BB
:10193000A795F0405395C9F77EF41F16BA0B620BBA
:10194000730B840BBAF09150A1F0FF0FBB1F661F01
:10195000771F881FC2F70EC0BA0F621F731F841F44
:1019600048F4879577956795B795F7959E3F08F06A
:10197000B0CF9395880F08F09927EE0F979587952C
:1019800008959F939F77EEE389379E0728F4E4E557
:10199000F0E00E943A0E0CC00E94C60D9058A2EAD8
:1019A0002AED3FE049EC5FE30E946C0C0E945C0E64
:1019B0000F9007FC905808950E94E60D08F481E00E
:1019C00008950E94F50C0C945C0E0E94550E58F080
:1019D0000E944E0E40F029F45F3F29F00C940A0E4D
:1019E00051110C94900E0C94100E0E946D0E68F321
:1019F0009923B1F3552391F3951B550BBB27AA27C8
:101A000062177307840738F09F5F5F4F220F331F01
:101A1000441FAA1FA9F335D00E2E3AF0E0E832D0C9
:101A200091505040E695001CCAF72BD0FE2F29D0CC
:101A3000660F771F881FBB1F261737074807AB079E
:101A4000B0E809F0BB0B802DBF01FF2793585F4F13
:101A50003AF09E3F510578F00C940A0E0C94900ECB
:101A60005F3FE4F3983ED4F3869577956795B795F5
:101A7000F7959F5FC9F7880F911D9695879597F900
:101A80000895E1E0660F771F881FBB1F6217730779
:101A90008407BA0720F0621B730B840BBA0BEE1F8E
:101AA00088F7E09508950E945A0D6894B1110C943E
:101AB000900E08950E94750E88F09F5798F0B92FE8
:101AC0009927B751B0F0E1F0660F771F881F991F73
:101AD0001AF0BA95C9F714C0B13091F00E948F0E78
:101AE000B1E008950C948F0E672F782F8827B85F88
:101AF00039F0B93FCCF3869577956795B395D9F7CB
:101B00003EF490958095709561957F4F8F4F9F4FD4
:101B10000895E89409C097FB3EF4909580957095E0
:101B200061957F4F8F4F9F4F9923A9F0F92F96E929
:101B3000BB279395F695879577956795B795F1119E
:101B4000F8CFFAF4BB0F11F460FF1BC06F5F7F4F3B
:101B50008F4F9F4F16C0882311F096E911C077234D
:101B600021F09EE8872F762F05C0662371F096E856
:101B7000862F70E060E02AF09A95660F771F881F25
:101B8000DAF7880F9695879597F90895DF93CF93A5
:101B90001F930F938B01EC01E8E6F0E00E94130E17
:101BA0000E945C0E9801AE018B01EC0160E070E0D8
:101BB00080E89FE30E94540C0E940E0F9801AE0132
:101BC0000F911F91CF91DF910C94AE0E990F0008E9
:101BD000550FAA0BE0E8FEEF16161706E807F907FF
:101BE000C0F012161306E407F50798F0621B730B9A
:101BF000840B950B39F40A2661F0232B242B252B1B
:101C000021F408950A2609F4A140A6958FEF811DBD
:101C1000811D089597F99F6780E870E060E008955E
:101C20009FEF80EC0895DF93CF931F930F93FF9264
:101C3000EF92DF927B018C01689406C0DA2EEF01EF
:101C40000E94AE0EFE01E894A59125913591459133
:101C50005591A6F3EF010E946C0CFE019701A801BB
:101C6000DA9469F7DF90EF90FF900F911F91CF9179
:101C7000DF9108959F938F937F936F93FF93EF93DB
:101C80009B01AC010E949B0EEF91FF910E94130EED
:101C90002F913F914F915F910C949B0E00240A94D9
:101CA0001616170618060906089500240A94121637
:101CB0001306140605060895092E0394000C11F46A
:101CC000882352F0BB0F40F4BF2B11F460FF04C017
:101CD0006F5F7F4F8F4F9F4F089557FD9058440F70
:101CE000551F59F05F3F71F04795880F97FB991F7B
:101CF00061F09F3F79F08795089512161306140638
:101D0000551FF2CF4695F1DF08C0161617061806C4
:101D1000991FF1CF86957105610508940895E8949F
:101D2000BB2766277727CB0197F908950E94E60D18
:101D300008F48FEF08950E94AE0E0C945C0E0E9482
:101D40004E0E38F00E94550E20F0952311F00C94A1
:101D50000A0E0C94100E11240C94900E0E946D0E1D
:101D600070F3959FC1F3950F50E0551F629FF001EE
:101D7000729FBB27F00DB11D639FAA27F00DB11D07
:101D8000AA1F649F6627B00DA11D661F829F222790
:101D9000B00DA11D621F739FB00DA11D621F839F17
:101DA000A00D611D221F749F3327A00D611D231FED
:101DB000849F600D211D822F762F6A2F11249F573B
:101DC00050409AF0F1F088234AF0EE0FFF1FBB1F3E
:101DD000661F771F881F91505040A9F79E3F5105FD
:101DE00080F00C940A0E0C94900E5F3FE4F3983E42
:101DF000D4F3869577956795B795F795E7959F5FA7
:101E0000C1F7FE2B880F911D9695879597F9089538
:101E100019F416F40C94100E0C944E0F0E94750ECB
:101E2000B8F39923C9F3B6F39F57550B87FF0E9468
:101E30005C0F0024A0E640EA9001805856959795E3
:101E400028F4805C660F771F881F20F0261737075D
:101E5000480730F4621B730B840B202931294A2B6D
:101E6000A69517940794202531254A2758F7660F21
:101E7000771F881F20F026173707480730F4620BBA
:101E8000730B840B200D311D411DA09581F7B90105
:101E9000842F9158880F9695879508959F3F31F02C
:101EA000915020F4879577956795B795880F911D88
:101EB0009695879597F9089591505040660F771F32
:101EC000881FD2F70895A1E21A2EAA1BBB1BFD01A1
:101ED0000DC0AA1FBB1FEE1FFF1FA217B307E40709
:101EE000F50720F0A21BB30BE40BF50B661F771F61
:101EF000881F991F1A9469F7609570958095909541
:101F00009B01AC01BD01CF010895052E97FB1EF486
:101F100000940E949C0F57FD07D00E94630F07FC9E
:101F200003D04EF40C949C0F50954095309521951C
:101F30003F4F4F4F5F4F08959095809570956195F5
:101F40007F4F8F4F9F4F0895EE0FFF1F0590F49125
:101F5000E02D0994FC0188279927E89421912032EB
:101F6000E9F3293010F02E30C8F32B3241F02D3236
:101F700039F4689404C00E94C80F820F911D21910A
:101F800020532A30C0F31EF4909581959F4F0895F9
:101F90007AE0979F902D879F802D910D11240895B1
:041FA000F894FFCFE3
:101FA4001900000048426772697020636F6D706C9D
:101FB400657465640072656C6561736520636F6D3B
:081FC400706C65746564000097
:00000001FF
