S00D00007561726D322E7372656330
S11300000C9449000C94E3060C9471000C94710058
S11300100C9457050C9471000C9471000C947100AD
S11300200C9471000C9471000C9487050C9471006D
S11300300C9471000C9442070C9471000C947100A0
S11300400C9471000C9471000C9471000C94710068
S11300500C947100036EDB363D9A9999993DABAAD5
S1130060AA2A3E000000803F072C7AA5BA6CC590EE
S1130070DA3B9365FC8BBC53F810FD3C5692834DE0
S1130080BD879D3AB63DCBC9BF5BBE73DA0FC93F8E
S11300902F0811241FBECFE5D8E0DEBFCDBF10E08E
S11300A0A0E6B0E0ECE6FDE102C005900D92AE38AA
S11300B0B107D9F721E0AEE8B0E001C01D92AB3A38
S11300C0B207E1F710E0C9E4D0E004C02197FE01D3
S11300D00E949E0BC834D107C9F70E9491040C9466
S11300E0B40E0C9400002AB128692AB920B52668F8
S11300F020BDDC01CB01880F991FAA1FBB1F880FED
S1130100991FAA1FBB1F9C01AD01220F331F441F5F
S1130110551F220F331F441F551F60E074E284EF04
S113012090E00E945D0B8FEF820F89B9DA01C9015B
S11301300197A109B109892F9A2FAB2FBB2780BD45
S113014008958CB95D9BFECF0895CF93DF93EC01A6
S11301508881882331F021960E94A1008991811120
S1130160FBCFDF91CF91089511B888E480B9089549
S113017094EA96BF06B607FEFDCF91B1987F903101
S113018071F483B984E886BF06B607FEFDCF81B15A
S1130190887F803431F0803231F083E0089580E04C
S11301A0089581E0089582E0089584E986BF06B643
S11301B004FCFDCF08951F93CF93DF93182FC4EA57
S11301C0D4E8C6BF06B607FEFDCF81B1887F88306C
S11301D0C1F713B9D6BF06B607FEFDCF81B1887F3C
S11301E0883119F00E94D500ECCFDF91CF911F9197
S11301F0089583B984E886BF06B607FEFDCF81B1B2
S1130200887F883221F0803321F082E0089580E0F5
S1130210089581E0089584EC86BF06B607FEFDCFFD
S113022083B1089584E886BF06B607FEFDCF83B187
S11302300895CF93DF93EC012FEF82E597E02150EF
S113024080409040E1F700C0000088810E94DB00FC
S113025089E10E94F90087E00E94F9000E94D5001C
S113026088810E94DB008BE60E94F90081E00E94F5
S1130270F9000E94D50088810E94DB008AE10E9477
S1130280F90080E00E94F9000E94D50088810E9454
S1130290DB008BE10E94F90080E00E94F9000E94DB
S11302A0D50088810E94DB0088E30E94F90081E088
S11302B00E94F9000E94D50088810E94DB008CE135
S11302C00E94F90088E00E94F9000E94D500DF91A5
S11302D0CF910895CF93DF93EC0188810E94DB00D6
S11302E08BE30E94F9008A810E94B800DF91CF91CC
S11302F008951F93CF93DF93EC010E946A010E943B
S11303000B01182F0E940B01612F70E0762F6627D6
S1130310682B719561957109072E000C880B990B58
S11303200E94AE096C837D838E839F830E940B01A0
S1130330182F0E940B01612F70E0762F6627682B1F
S1130340719561957109072E000C880B990B0E9419
S1130350AE09688779878A879B870E940B01182FCB
S11303600E940B01612F70E0762F6627682B719530
S113037061957109072E000C880B990B0E94AE0938
S11303806C877D878E879F870E940B01182F0E94A0
S11303900B01612F70E0762F6627682B072E000C67
S11303A0880B990B0E94AE09688B798B8A8B9B8B87
S11303B00E940B01182F0E940B01612F70E0762F11
S11303C06627682B719561957109072E000C880BBF
S11303D0990B0E94AE096C8B7D8B8E8B9F8B0E9438
S11303E00B01182F0E940B01612F70E0762F6627F6
S11303F0682B719561957109072E000C880B990B78
S11304000E94AE09688F798F8A8F9B8F0E940B019F
S1130410182F0E941201612F70E0762F6627682B37
S1130420719561957109072E000C880B990B0E9438
S1130430AE096C8F7D8F8E8F9F8F0E94D500DF91C8
S1130440CF911F9108954F925F926F927F928F92F6
S11304509F92AF92BF92CF92DF92EF92FF92CF938F
S1130460DF93CDB7DEB72E970FB6F894DEBF0FBE7D
S1130470CDBF9E878D870E94790120E030E040E067
S11304805EE3AD85BE8514966D917D918D919C91B1
S113049017970E94950A4B015C01609321017093A8
S11304A02201809323019093240120E030E040E076
S11304B05EE3ED85FE8560857185828593850E9466
S11304C0950A69837A838B839C8360931D0170935F
S11304D01E0180931F019093200120E030E040E052
S11304E05EE3AD85BE851C966D917D918D919C9149
S11304F01F970E94950A6D837E838F8398876093EC
S1130500190170931A0180931B0190931C01ED85CE
S1130510FE8560A571A582A593A50E94AE099B01E5
S1130520AC01AD85BE8554966D917D918D919C9164
S113053057970E947C0820E030E043E053E40E9497
S1130540040969877A878B879C876093110170936C
S113055012018093130190931401ED85FE8564A12B
S113056075A186A197A10E94AE099B01AC01AD853E
S1130570BE8558966D917D918D919C915B970E945B
S11305807C0820E030E043E053E40E9404092B019E
S11305903C0160930D0170930E0180930F019093C1
S11305A01001ED85FE8564A575A586A597A50E9415
S11305B0AE099B01AC01AD85BE855C966D917D91C4
S11305C08D919C915F970E947C0820E030E043E08D
S11305D053E40E9404096093090170930A01809313
S11305E00B0190930C0184B5883C58F424B5809198
S11305F0A9019091AA01820F911D9093AA01809361
S1130600A9016091A9017091AA01072E000C880B21
S1130610990B20E231EA47E050E00E947F0BCA01C7
S1130620B9010E94AE096B017C01609305017093CE
S1130630060180930701909308011092AA01109279
S1130640A9019B01AC01C301B2010E94950AED8589
S1130650FE8520A131A142A153A10E947D082B0156
S11306603C01AD85BE8590966D937D938D939C934F
S11306709397A701960169857A858B859C850E944D
S1130680950A9B01AC01609115017091160180914E
S11306901701909118010E947D08609315017093D1
S11306A016018093170190931801A5019401C501C7
S11306B0B4010E94950A6B017C0129813A814B8126
S11306C05C81CA01B9010E94950A9B01AC01C70172
S11306D0B6010E947D0869877A878B879C87298168
S11306E03A814B815C81CA01B9010E94950A9B0140
S11306F0AC01C701B6010E947D086B017C012D810C
S11307003E814F815885CA01B9010E94950A9B0117
S1130710AC01C701B6010E947D080E94080B9B0131
S1130720AC01C501B4010E9404090E94E90821EE4C
S11307303EE245E652E40E94950A6B017C018091F9
S113074026018823F9F02FE832EC45E75FE3C30183
S1130750B2010E94950A4B015C012AE037ED43E2A5
S11307605DE3C701B6010E94950A9B01AC01C50176
S1130770B4010E947D08ED85FE8560A371A382A368
S113078093A30BC0AD85BE859096CD92DD92ED927C
S1130790FC92939781E080932601ED85FE8560A10C
S11307A071A182A193A12E960FB6F894DEBF0FBE5D
S11307B0CDBFDF91CF91FF90EF90DF90CF90BF90AE
S11307C0AF909F908F907F906F905F904F9008951F
S11307D0CF92DF92EF92FF920F931F93CF93DF9309
S11307E0EC0108EC10E0CE010E94790168A579A51E
S11307F08AA59BA50E94AE092C893D894E895F89F3
S11308000E947D080E94760968A779A78AA79BA7FA
S11308106CA17DA18EA19FA10E94AE09288D398D66
S11308204A8D5B8D0E947D080E9476096CA37DA38E
S11308308EA39FA36CA57DA58EA59FA50E94AE093E
S11308402C8D3D8D4E8D5F8D0E947D080E94760912
S11308506CA77DA78EA79FA78FE99FE00197F1F76B
S113086000C000000150110909F0BDCF68A579A5A9
S11308708AA59BA50F2EF8ECCF2ED12CE12CF12CC0
S1130880F02DA70196010E947F0B28A739A74AA73C
S11308905BA76CA17DA18EA19FA1A70196010E94D7
S11308A07F0B2CA33DA34EA35FA36CA57DA58EA5B2
S11308B09FA5A70196010E947F0B2CA73DA74EA7D9
S11308C05FA7DF91CF911F910F91FF90EF90DF9081
S11308D0CF90089586B597B5C2979BBD8ABD2FEF7B
S11308E08BE49DE1215080409040E1F700C000007E
S11308F086B597B59BBD8ABD089586B597B5845FC7
S113090091409BBD8ABD2FEF8BE49DE12150804037
S11309109040E1F700C0000086B597B59BBD8ABD45
S11309200895CF93DF93CDB7DEB7C056D1090FB684
S1130930F894DEBF0FBECDBF78948FEF84BBB89818
S11309408A988BB780648BBF85B7816085BF19A2F5
S11309501AA21BA21CA21DA21EA21FA218A619A69F
S11309601AA61BA61CA61DA61EA61FA618AA80EDC5
S113097090E09A83898381ED90E09C838B836596D4
S11309801CAE1DAE1EAE1FAE659769961CAE1DAEA5
S11309901EAE1FAE69976D961CAE1DAE1EAE1FAE89
S11309A06D97A1961CAE1DAE1EAE1FAEA19782ED33
S11309B090E09AAB89AB83ED90E09CAB8BAB60E0AD
S11309C076E980E090E00E9473000E94B400CE01BA
S11309D001960E941901CE01C1960E94190189B79E
S11309E0826889BF85B58B6085BD88EC83BD83B77C
S11309F08A6083BF8CE98CBFCE0101960E94E80314
S1130A00CE01C1960E94E80314BC0F2EF6E6EF2E29
S1130A10F0E0FF2EF02D0FE811E0CE0101960E94C8
S1130A2023022B013C01CE01C1960E9423024B01FB
S1130A305C01C301B2010E94760971956195710947
S1130A407F936F93FF92EF921F930F930E94CA0BB1
S1130A50C8010E94A50089E690E00E94A5008FE8E5
S1130A6091E00197F1F700C00000C501B4010E94B4
S1130A7076097195619571097F936F93FF92EF9257
S1130A801F930F930E94CA0BC8010E94A5008BE616
S1130A9090E00E94A5008FE891E00197F1F700C073
S1130AA000000FB6F894DEBF0FBECDBFB6CF1F92C5
S1130AB00F920FB60F9211248F939F93AF93BF930E
S1130AC08091A9019091AA0188539F4F9093AA0104
S1130AD08093A9018091F9009091FA00A091FB0004
S1130AE0B091FC000196A11DB11D8093F900909373
S1130AF0FA00A093FB00B093FC0014BCBF91AF912B
S1130B009F918F910F900FBE0F901F9018951F9279
S1130B100F920FB60F9211242F933F934F935F932D
S1130B206F937F938F939F93AF93BF93EF93FF93B1
S1130B3080912501853120F48F5F8093250132C196
S1130B40E2EDF0E0848D958D0196958F848F268D4E
S1130B50378D281739074CF5158E148E828D938D99
S1130B60978F868F9923A4F425B381E090E0018CBC
S1130B7002C0880F991F0A94E2F78095822385BBEF
S1130B80868D978D919581959109978F868F2CC02D
S1130B9025B381E090E00090EB0002C0880F991F1C
S1130BA00A94E2F7822B85BB1FC08130910569F45A
S1130BB025B381E090E00090EA0002C0880F991FFD
S1130BC00A94E2F7822B85BB0FC0029769F425B320
S1130BD081E090E00090EA0002C0880F991F0A9417
S1130BE0E2F78095822385BBE0EBF0E0848D958D60
S1130BF00196958F848F268D378D281739074CF5EC
S1130C00158E148E828D938D978F868F9923A4F4DD
S1130C1025B381E090E0018C02C0880F991F0A94EB
S1130C20E2F78095822385BB868D978D919581957A
S1130C309109978F868F2CC025B381E090E00090B6
S1130C40C90002C0880F991F0A94E2F7822B85BB62
S1130C501FC08130910569F425B381E090E00090D4
S1130C60C80002C0880F991F0A94E2F7822B85BB43
S1130C700FC0029769F425B381E090E00090C800AA
S1130C8002C0880F991F0A94E2F78095822385BBDE
S1130C90EEE8F0E0848D958D0196958F848F268DF6
S1130CA0378D281739075CF5158E148E828D938D38
S1130CB0978F868F91A380A39923A4F425B381E011
S1130CC090E0018C02C0880F991F0A94E2F7809586
S1130CD0822385BB868D978D919581959109978FF8
S1130CE0868F60C025B381E090E00090A70002C029
S1130CF0880F991F0A94E2F7822B85BB53C0813079
S1130D00910569F425B381E090E00090A60002C04B
S1130D10880F991F0A94E2F7822B85BB43C0029780
S1130D2009F040C025B3EEE8F0E081E090E0008CEB
S1130D3002C0880F991F0A94E2F78095822385BB2D
S1130D4080A191A118161906BCF42EEA37E441E2F9
S1130D505DE36091FD007091FE008091FF00909131
S1130D6000010E947C086093FD007093FE00809354
S1130D70FF009093000116C02EEA37E441E25DE3E0
S1130D806091FD007091FE008091FF009091000140
S1130D900E947D086093FD007093FE008093FF0025
S1130DA090930001FF91EF91BF91AF919F918F912B
S1130DB07F916F915F914F913F912F910F900FBE53
S1130DC00F901F9018951F920F920FB60F92112437
S1130DD02F933F934F935F936F937F938F939F933F
S1130DE0AF93BF93EF93FF9396B380B3917082FB5D
S1130DF0222720F981E08227981306C086B390B396
S1130E0094708170981317C06091F4007091F5008C
S1130E108091F6009091F70020E030E040E85FE335
S1130E200E947D086093F4007093F5008093F600AF
S1130E309093F70016C06091F4007091F5008091D2
S1130E40F6009091F70020E030E040E85FE30E9474
S1130E507C086093F4007093F5008093F6009093FF
S1130E60F700FF91EF91BF91AF919F918F917F9187
S1130E706F915F914F913F912F910F900FBE0F9003
S1130E801F9018951F920F920FB60F9211242F9353
S1130E903F934F935F936F937F938F939F93AF93FE
S1130EA0BF93EF93FF932CB1822F90E09093A8010E
S1130EB08093A7012093F8008736910551F48DE6BD
S1130EC090E00E94A5001092A8011092A7010E9430
S1130ED07D048091A7019091A8018237910551F476
S1130EE08CE790E00E94A5001092A8011092A7013F
S1130EF00E946A048091A7019091A8018E32910505
S1130F0009F081C0E091A501F091A601E55DFE4FD5
S1130F1010828BE291E00E94A40B909304018093D1
S1130F2003012091A3013091A4012115310511F58C
S1130F308535910534F085E590E090930401809324
S1130F4003016091030170910401072E000C880BCA
S1130F50990B0E94AE0960936200709363008093C2
S1130F6064009093650081E090E09093A4018093E5
S1130F70A30140C02130310561F5883491053CF06E
S1130F8088E490E0909304018093030109C0893EB2
S1130F909F4F34F488EE9FEF9093040180930301F4
S1130FA06091030170910401072E000C880B990BCA
S1130FB00E94AE0960932701709328018093290150
S1130FC090932A0182E090E09093A4018093A3017E
S1130FD011C02230310571F4909361008093600058
S1130FE01092A4011092A30181E090E09093020179
S1130FF08093010110920401109203011092A60142
S11310001092A50117C09C01205331092A303105E3
S113101018F08D32910571F42091A5013091A6014B
S1131020F901E55DFE4F80832F5F3F4F3093A601AA
S11310302093A5011092A8011092A701FF91EF91AE
S1131040BF91AF919F918F917F916F915F914F91DC
S11310503F912F910F900FBE0F901F901895E2EDC6
S1131060F0E0148215821682178280E090E0A0EAF4
S1131070B0E480879187A287B38714861586168685
S1131080178627E0208F26E0218F138E128E158E6F
S1131090148E178E168EE0EBF0E014821582168201
S11310A0178280879187A287B38714861586168650
S11310B0178625E0208F24E0218F138E128E158E43
S11310C0148E178E168EEEE8F0E0148215821682C6
S11310D0178280879187A287B38714861586168620
S11310E0178683E0808F82E0818F138E128E158E97
S11310F0148E178E168E08955058BB27AA270E9467
S113110094080C945B0A0E944D0A38F00E94540A19
S113111020F039F49F3F19F426F40C940F0A0EF4CE
S1131120E095E7FB0C94090AE92F0E946C0A58F336
S1131130BA17620773078407950720F079F4A6F5B8
S11311400C948E0A0EF4E0950B2EBA2FA02D0B01F1
S1131150B90190010C01CA01A0011124FF27591BF8
S113116099F0593F50F4503E68F11A16F040A22FFE
S1131170232F342F4427585FF3CF4695379527956F
S1131180A795F0405395C9F77EF41F16BA0B620B6E
S1131190730B840BBAF09150A1F0FF0FBB1F661FB5
S11311A0771F881FC2F70EC0BA0F621F731F841FF8
S11311B048F4879577956795B795F7959E3F08F01E
S11311C0B0CF9395880F08F09927EE0F97958795E0
S11311D008959F939F77EEE389379E0728F4E4E50B
S11311E0F0E00E94390A0CC00E94E9099058A2EA72
S11311F02AED3FE049EC5FE30E9494080E945B0AF9
S11312000F9007FC905808950E9418090C945B0AEB
S11312100E94540A58F00E944D0A40F029F45F3F9E
S113122029F00C94090A51110C948F0A0C940F0A9A
S11312300E946C0A68F39923B1F3552391F3951B2B
S1131240550BBB27AA2762177307840738F09F5FE3
S11312505F4F220F331F441FAA1FA9F335D00E2E50
S11312603AF0E0E832D091505040E695001CCAF7BD
S11312702BD0FE2F29D0660F771F881FBB1F261780
S113128037074807AB07B0E809F0BB0B802DBF0157
S1131290FF2793585F4F3AF09E3F510578F00C9426
S11312A0090A0C948F0A5F3FE4F3983ED4F38695C1
S11312B077956795B795F7959F5FC9F7880F911D47
S11312C09695879597F90895E1E0660F771F881F33
S11312D0BB1F621773078407BA0720F0621B730BE6
S11312E0840BBA0BEE1F88F7E09508950E947D09E0
S11312F06894B1110C948F0A08950E94740A88F0BE
S11313009F5798F0B92F9927B751B0F0E1F0660FC5
S1131310771F881F991F1AF0BA95C9F714C0B13006
S113132091F00E948E0AB1E008950C948E0A672F02
S1131330782F8827B85F39F0B93FCCF38695779535
S11313406795B395D9F73EF490958095709561951E
S11313507F4F8F4F9F4F0895E89409C097FB3EF449
S113136090958095709561957F4F8F4F9F4F9923EE
S1131370A9F0F92F96E9BB279395F695879577956C
S11313806795B795F111F8CFFAF4BB0F11F460FF2C
S11313901BC06F5F7F4F8F4F9F4F16C0882311F084
S11313A096E911C0772321F09EE8872F762F05C098
S11313B0662371F096E8862F70E060E02AF09A9533
S11313C0660F771F881FDAF7880F9695879597F928
S11313D00895DF93CF931F930F938B01EC01E8E6FD
S11313E0F0E00E94120A0E945B0A9801AE018B0190
S11313F0EC0160E070E080E89FE30E947C080E94BA
S1131400080B9801AE010F911F91CF91DF910C94BD
S1131410A80A97F99F6780E870E060E008959FEF5D
S113142080EC0895DF93CF931F930F93FF92EF9275
S1131430DF927B018C01689406C0DA2EEF010E94D2
S1131440A80AFE01E894A5912591359145915591FD
S1131450A6F3EF010E949408FE019701A801DA9413
S113146069F7DF90EF90FF900F911F91CF91DF917B
S113147008959F938F937F936F93FF93EF939B01B3
S1131480AC010E94950AEF91FF910E94120A2F91DC
S11314903F914F915F910C94950A00240A9416167B
S11314A0170618060906089500240A94121613064E
S11314B0140605060895092E0394000C11F48823DC
S11314C052F0BB0F40F4BF2B11F460FF04C06F5FF8
S11314D07F4F8F4F9F4F089557FD9058440F551FCE
S11314E059F05F3F71F04795880F97FB991F61F0A2
S11314F09F3F79F087950895121613061406551F19
S1131500F2CF4695F1DF08C0161617061806991F84
S1131510F1CF86957105610508940895E894BB2779
S113152066277727CB0197F908950E94A80A0C949F
S11315305B0A0E944D0A38F00E94540A20F0952359
S113154011F00C94090A0C940F0A11240C948F0ABC
S11315500E946C0A70F3959FC1F3950F50E0551FDC
S1131560629FF001729FBB27F00DB11D639FAA27F4
S1131570F00DB11DAA1F649F6627B00DA11D661F43
S1131580829F2227B00DA11D621F739FB00DA11D64
S1131590621F839FA00D611D221F749F3327A00D1E
S11315A0611D231F849F600D211D822F762F6A2FBA
S11315B011249F5750409AF0F1F088234AF0EE0F1F
S11315C0FF1FBB1F661F771F881F91505040A9F74C
S11315D09E3F510580F00C94090A0C948F0A5F3FDA
S11315E0E4F3983ED4F3869577956795B795F79588
S11315F0E7959F5FC1F7FE2B880F911D9695879500
S113160097F9089519F416F40C940F0A0C94480BE6
S11316100E94740AB8F39923C9F3B6F39F57550B84
S113162087FF0E94560B0024A0E640EA90018058F0
S11316305695979528F4805C660F771F881F20F0D5
S113164026173707480730F4621B730B840B2029D5
S113165031294A2BA69517940794202531254A272A
S113166058F7660F771F881F20F02617370748079B
S113167030F4620B730B840B200D311D411DA095BA
S113168081F7B901842F9158880F9695879508950D
S11316909F3F31F0915020F4879577956795B795E2
S11316A0880F911D9695879597F90895915050400C
S11316B0660F771F881FD2F70895A1E21A2EAA1B7E
S11316C0BB1BFD010DC0AA1FBB1FEE1FFF1FA217EE
S11316D0B307E407F50720F0A21BB30BE40BF50BEB
S11316E0661F771F881F991F1A9469F76095709574
S11316F0809590959B01AC01BD01CF010895052E05
S113170097FB1EF400940E94960B57FD07D00E948D
S11317105D0B07FC03D04EF40C94960B509540954A
S1131720309521953F4F4F4F5F4F08959095809589
S1131730709561957F4F8F4F9F4F0895EE0FFF1F58
S11317400590F491E02D0994FC0188279927E894E9
S113175021912032E9F3293010F02E30C8F32B32D6
S113176041F02D3239F4689404C00E94C20B820FF8
S1131770911D219120532A30C0F31EF49095819538
S11317809F4F08957AE0979F902D879F802D910D0C
S113179011240895AEE0B0E0E0EDFBE00C948B0E74
S11317A00D891E8986E08C831A8309838FEF9FE756
S11317B09E838D83AE01475E5F4F6F89788DCE0126
S11317C001960E94EC0BEF81F885E00FF11F108267
S11317D02E96E4E00C94A70EABE0B0E0E2EFFBE061
S11317E00C947D0E6C017B018A01FC011782168228
S11317F0838181FFCCC1CE0101963C01F601938126
S1131800F70193FD859193FF81917F01882309F46A
S1131810BAC1853239F493FD859193FF81917F019B
S1131820853229F4B60190E00E94E30DE7CF912CB4
S1131830212C312CFFE1F315D8F08B3279F038F4F8
S1131840803279F08332A1F4232D20611DC08D32C2
S113185061F0803369F4232D216016C0832D8260EA
S1131860382EE32DE4603E2E2AC0F32DF8601DC00F
S113187037FC2DC020ED280F2A3040F08E32B9F409
S113188036FC81C1232D2064322E19C036FE06C0D9
S11318908AE0989E200D1124922E11C0EAE02E9E1B
S11318A0200D1124222EF32DF0623F2E08C08C3619
S11318B021F4832D8068382E02C0883641F4F70164
S11318C093FD859193FF81917F018111B3CF982F6F
S11318D09F7D9554933028F40C5F1F4F9FE39983A9
S11318E00DC0833631F0833771F0833509F059C068
S11318F021C0F801808189830E5F1F4F882483945F
S1131900912C530113C02801F2E04F0E511CF80131
S1131910A080B18036FE03C0692D70E002C06FEF75
S11319207FEFC5010E94D80D4C018201F32DFF7792
S11319303F2E16C0280122E0420E511CF801A0805F
S1131940B18036FE03C0692D70E002C06FEF7FEFF7
S1131950C5010E94CD0D4C01F32DF0683F2E82018C
S113196033FC1BC0822D90E088169906B0F4B601B2
S113197080E290E00E94E30D2A94F4CFF50137FC55
S1131980859137FE81915F01B60190E00E94E30DDD
S113199021102A9421E0821A91088114910471F78C
S11319A0E8C0843611F0893641F5F80137FE07C0E6
S11319B060817181828193810C5F1F4F08C06081B7
S11319C07181072E000C880B990B0E5F1F4FF32DAE
S11319D0FF763F2E97FF09C090958095709561958D
S11319E07F4F8F4F9F4FF0683F2E2AE030E0A301D6
S11319F00E941F0E882E861845C0853731F4232D8A
S1131A002F7EB22E2AE030E025C0932D997FB92E87
S1131A108F36C1F018F4883579F0B5C0803719F0E5
S1131A20883721F0B0C0E92FE061BE2EB4FE0DC0AE
S1131A30FB2DF460BF2E09C034FE0AC0292F266096
S1131A40B22E06C028E030E005C020E130E002C03C
S1131A5020E132E0F801B7FE07C060817181828124
S1131A6093810C5F1F4F06C06081718180E090E01C
S1131A700E5F1F4FA3010E941F0E882E8618FB2D98
S1131A80FF773F2E36FE0DC0232D2E7FA22E891404
S1131A9058F434FE0BC032FC09C0832D8E7EA82E70
S1131AA005C0B82CA32C03C0B82C01C0B92CA4FECB
S1131AB00FC0FE01E80DF11D8081803321F49A2DC1
S1131AC0997EA92E09C0A2FE06C0B394B39404C0A3
S1131AD08A2D867809F0B394A3FC11C0A0FE06C039
S1131AE0B21488F4280C922C9B180EC0B21460F423
S1131AF0B60180E290E00E94E30DB394F7CFB214F4
S1131B0018F42B1802C0982C212CA4FE10C0B60186
S1131B1080E390E00E94E30DA2FE17C0A1FC03C085
S1131B2088E790E002C088E590E0B6010CC08A2DF9
S1131B30867859F0A1FE02C08BE201C080E2A7FCC6
S1131B408DE2B60190E00E94E30D891438F4B601E9
S1131B5080E390E00E94E30D9A94F7CF8A94F30116
S1131B60E80DF11D8081B60190E00E94E30D811023
S1131B70F5CF222009F442CEB60180E290E00E9423
S1131B80E30D2A94F6CFF6018681978102C08FEF88
S1131B909FEF2B96E2E10C94990EFC0105906150A5
S1131BA070400110D8F7809590958E0F9F1F08956F
S1131BB0FC016150704001900110D8F78095909518
S1131BC08E0F9F1F08950F931F93CF93DF93FB01F5
S1131BD0238121FD03C08FEF9FEF2CC022FF16C08D
S1131BE046815781248135814217530744F4A081EB
S1131BF0B1819D012F5F3F4F318320838C932681D8
S1131C0037812F5F3F4F3783268314C08B01EC014C
S1131C10FB010084F185E02D0995892BE1F6D801BB
S1131C2016968D919C911797019617969C938E9377
S1131C301697CE01DF91CF911F910F910895FA016C
S1131C40AA27283051F1203181F1E8946F936E7FF7
S1131C506E5F7F4F8F4F9F4FAF4FB1E03ED0B4E0E8
S1131C603CD0670F781F891F9A1FA11D680F791F29
S1131C708A1F911DA11D6A0F711D811D911DA11D3A
S1131C8020D009F468943F912AE0269F112430194A
S1131C90305D3193DEF6CF010895462F4770405DE5
S1131CA04193B3E00FD0C9F7F6CF462F4F70405D94
S1131CB04A3318F0495D31FD4052419302D0A9F7EF
S1131CC0EACFB4E0A6959795879577956795BA95E9
S1131CD0C9F700976105710508959B01AC010A2EAF
S1131CE006945795479537952795BA95C9F7620F86
S1131CF0731F841F951FA01D08952F923F924F922A
S1131D005F926F927F928F929F92AF92BF92CF9287
S1131D10DF92EF92FF920F931F93CF93DF93CDB790
S1131D20DEB7CA1BDB0B0FB6F894DEBF0FBECDBF08
S1131D3009942A88398848885F846E847D848C84D9
S1131D409B84AA84B984C884DF80EE80FD800C81E2
S1131D501B81AA81B981CE0FD11D0FB6F894DEBFC5
S10F1D600FBECDBFED010895F894FFCF35
S1131D6C1900000048422564006D006E006772691A
S1131D7C7020636F6D706C657465640072656C655E
S1111D8C61736520636F6D706C65746564002F
S9030000FC
