S00D00007561726D322E7372656330
S11300000C942B000C9421060C9453000C94530074
S11300100C9495040C9453000C9453000C945300CA
S11300200C9453000C9453000C94C5040C9453008A
S11300300C9453000C9480060C9453000C945300BD
S11300400C9453000C9453000C9453000C945300E0
S11300500C9453006D0711241FBECFE5D8E0DEBF1A
S1130060CDBF10E0A0E6B0E0E0E9F4E102C0059005
S11300700D92A838B107D9F721E0A8E8B0E001C093
S11300801D92AA37B207E1F710E0CBE2D0E004C03A
S11300902197FE010E941A0ACA32D107C9F70E94A9
S11300A0C1000C94460A0C9400002AB128692AB9AC
S11300B020B5266820BDDC01CB01880F991FAA1F3B
S11300C0BB1F880F991FAA1FBB1F9C01AD01220FE4
S11300D0331F441F551F220F331F441F551F60E059
S11300E074E284EF90E00E94F8098FEF820F89B9DF
S11300F0DA01C9010197A109B109892F9A2FAB2F00
S1130100BB2780BD08958CB95D9BFECF0895CF9326
S1130110DF93EC018881882331F021960E948300CB
S113012089918111FBCFDF91CF91089511B888E4B3
S113013080B9089586B597B5C2979BBD8ABD2FEF48
S11301408BE49DE1215080409040E1F700C0000025
S113015086B597B59BBD8ABD089586B597B5845F6E
S113016091409BBD8ABD2FEF8BE49DE121508040DF
S11301709040E1F700C0000086B597B59BBD8ABDED
S11301800895CF93DF93CDB7DEB728970FB6F894D1
S1130190DEBF0FBECDBF78948FEF84BBB8988A982A
S11301A08BB780648BBF85B7816085BF60E076E9DB
S11301B080E090E00E9455000E94960089B7826812
S11301C089BF85B58B6085BD88EC83BD83B78A60A4
S11301D083BF8CE98CBF14BC22242394312C512C72
S11301E0412C0F2EF8E47F2EF02D0F2EF2EC6F2E03
S11301F0F02D5D824E827F8268860AEA10E01982C1
S11302001A8288E48B8392E49C83E7E2F1E0F09322
S1130210EF00E093EE006091F0007091F1008091A6
S1130220F2009091F30020E030E843E953E40E94A7
S11302302708882334F515BA95B391010090A100DD
S113024002C0220F331F0A94E2F7822F809589237C
S113025085BB25B3C1010090A00002C0880F991F7F
S11302600A94E2F7822B85BB8FE891E00197F1F7BE
S113027000C0000015BAEFE8F1E03197F1F700C0D3
S11302800000C090F000D090F100E090F200F090F7
S1130290F3006091EE007091EF0080E090E00E9426
S11302A0D408A70196010E942708882384F515BA6B
S11302B025B3C1010090A10002C0880F991F0A94C0
S11302C0E2F7822B85BB25B3C1010090A00002C0D8
S11302D0880F991F0A94E2F7822B85BB8FE891E07F
S11302E00197F1F700C0000095B391010090A000C0
S11302F002C0220F331F0A94E2F7822F80958923CC
S113030085BBEFE8F1E03197F1F700C0000015BAC2
S11303108D819E81AF81B885ECECF0E08083918380
S1130320A283B383252D342D472D562D6091D400FF
S11303307091D5008091D6009091D7000E948B09CE
S11303406B017C01252D342D472D562D6091D00055
S11303507091D1008091D2009091D3000E948B09BA
S11303602091760130917701409178015091790183
S11303700E94BB074B015C01609376017093770187
S1130380809378019093790120E030E048EC53E4C5
S11303900E94860918166CF480E090E0A8ECB3E49F
S11303A08093760190937701A0937801B0937901BB
S11303B016C020E030E048EC53ECC501B4010E94C3
S11303C02708882364F480E090E0A8ECB3EC8093E1
S11303D0760190937701A0937801B09379012091ED
S11303E07201309173014091740150917501652D32
S11303F0742D872D962D0E94BA072091D800309134
S1130400D9004091DA005091DB000E948B099B01D6
S1130410AC018090760190907701A0907801B09023
S11304207901C701B6010E94BB07A50194010E948E
S1130430BB076B017C016093E0007093E100809343
S1130440E2009093E30020E030E048EC53E40E94A3
S1130450860918166CF480E090E0A8ECB3E480936D
S1130460E0009093E100A093E200B093E30038C071
S113047020E030E048EC53ECC701B6010E942708A5
S113048088234CF40F2EC12CD12CF8ECEF2EF3EC76
S1130490FF2EF02D66C0C090E000D090E100E09007
S11304A0E200F090E30020E030E040EA50E4C701CD
S11304B0B6010E94270888239CF420E030E040EA3B
S11304C050ECC701B6010E94860918164CF410922C
S11304D0E0001092E1001092E2001092E300A3C049
S11304E0C090E000D090E100E090E200F090E300E2
S11304F020E030E0A901C701B6010E948609181660
S11305003CF520E030E040E151E4C701B6010E942F
S1130510BB079B01AC0160E070E080E89FE30E94B0
S11305202C0820E030EE4BEA55E40E948B099B0135
S1130530AC0160E070E88AEC93E40E94BA0760932F
S1130540E0007093E1008093E2009093E3002FC0F9
S113055020E030E0A901C701B6010E9427088823E2
S113056034F520E030E040E151E4C701B6010E94D7
S1130570BA079B01AC0160E070E080E89FE30E9451
S11305802C0820E030EE4BEA55E40E948B099B01D5
S1130590AC0160E070E88AEC93EC0E94BA076093C7
S11305A0E0007093E1008093E2009093E300C09038
S11305B0E000D090E100E090E200F090E30020E061
S11305C030E0A901C701B6010E94860918168CF40F
S11305D0A701960160E070E088EC93E40E94BA07FA
S11305E06093DC007093DD008093DE009093DF0065
S11305F022C020E030E0A901C701B6010E9427080B
S113060088238CF4A701960160E070E088EC93ECF9
S11306100E94BA076093DC007093DD008093DE00D3
S11306209093DF0008C01092DC001092DD0010925D
S1130630DE001092DF006091DC007091DD0080919B
S1130640DE009091DF000E949E087093E7006093A3
S1130650E60089819A81AB81BC81F8018083918312
S1130660A283B38320E030E048E452E460857185DE
S1130670828593850E948B096B017C0120E030E028
S113068048E452E4F80164817581868197810E946F
S11306908B09A50194010E94BB074B015C01609387
S11306A0760170937701809378019093790120E02B
S11306B030E048EC53E40E94860918166CF480E09C
S11306C090E0A8ECB3E48093760190937701A09333
S11306D07801B093790116C020E030E048EC53EC87
S11306E0C501B4010E942708882364F480E090E0E7
S11306F0A8ECB3EC8093760190937701A0937801F2
S1130700B093790120E030E048EC52E4F8016485CC
S11307107585868597850E948B099B01AC0189812B
S11307209A81AB81BC818093720190937301A093F1
S11307307401B0937501C701B6010E94BB072091F3
S113074076013091770140917801509179010E94AE
S1130750BB076B017C01F801648B758B868B978BCF
S113076020E030E048EC53E40E948609181654F463
S113077080E090E0A8ECB3E4F801848B958BA68B21
S1130780B78B32C020E030E048EC53ECC701B6012F
S11307900E94270888234CF40F2EC12CD12CF8EC8E
S11307A0EF2EF3ECFF2EF02D5AC0F801C488D58843
S11307B0E688F78820E030E040EA50E4C701B6015B
S11307C00E942708882384F420E030E040EA50ECBB
S11307D0C701B6010E948609181634F4F801148A78
S11307E0158A168A178A91C0F801C488D588E688C4
S11307F0F78820E030E0A901C701B6010E9486090C
S1130800181624F520E030E040E151E4C701B601B8
S11308100E94BB079B01AC0160E070E080E89FE3AD
S11308200E942C0820E030EE4BEA55E40E948B092C
S11308309B01AC0160E070E88AEC93E40E94BA0783
S1130840F801648B758B868B978B2CC020E030E08D
S1130850A901C701B6010E94270888231CF520E0DE
S113086030E040E151E4C701B6010E94BA079B01A0
S1130870AC0160E070E080E89FE30E942C0820E077
S113088030EE4BEA55E40E948B099B01AC0160E019
S113089070E88AEC93EC0E94BA07F801648B758BBC
S11308A0868B978BF801C488D588E688F78820E082
S11308B030E0A901C701B6010E948609181674F434
S11308C0A701960160E070E088EC93E40E94BA0707
S11308D0F801608B718B828B938B1CC020E030E01D
S11308E0A901C701B6010E942708882374F4A7014F
S11308F0960160E070E088EC93EC0E94BA07F8017E
S1130900608B718B828B938B05C0F801108A118ADE
S1130910128A138AF80160897189828993890E94F5
S11309209E08F801738F628F70CC1F920F920FB6DE
S11309300F9211248F939F93AF93BF938091700173
S11309409091710188539F4F90937101809370012E
S11309508091F5009091F600A091F700B091F80015
S11309600196A11DB11D8093F5009093F600A0930C
S1130970F700B093F80014BCBF91AF919F918F9191
S11309800F900FBE0F901F9018951F920F920FB6E5
S11309900F9211242F933F934F935F936F937F9301
S11309A08F939F93AF93BF93EF93FF938091010134
S11309B0853120F48F5F8093010132C1ECECF0E0CB
S11309C0848D958D0196958F848F268D378D28176C
S11309D039074CF5158E148E828D938D978F868FE3
S11309E09923A4F425B381E090E0018C02C0880F20
S11309F0991F0A94E2F78095822385BB868D978D93
S1130A00919581959109978F868F2CC025B381E0AC
S1130A1090E00090E50002C0880F991F0A94E2F765
S1130A20822B85BB1FC08130910569F425B381E019
S1130A3090E00090E40002C0880F991F0A94E2F746
S1130A40822B85BB0FC0029769F425B381E090E047
S1130A500090E40002C0880F991F0A94E2F7809581
S1130A60822385BBEAEAF0E0848D958D0196958F0B
S1130A70848F268D378D281739074CF5158E148EE3
S1130A80828D938D978F868F9923A4F425B381E06B
S1130A9090E0018C02C0880F991F0A94E2F78095B8
S1130AA0822385BB868D978D919581959109978F2A
S1130AB0868F2CC025B381E090E00090C30002C073
S1130AC0880F991F0A94E2F7822B85BB1FC08130DF
S1130AD0910569F425B381E090E00090C20002C062
S1130AE0880F991F0A94E2F7822B85BB0FC00297E7
S1130AF069F425B381E090E00090C20002C0880F41
S1130B00991F0A94E2F78095822385BBE8E8F0E018
S1130B10848D958D0196958F848F268D378D28171A
S1130B2039075CF5158E148E828D938D978F868F81
S1130B3091A380A39923A4F425B381E090E0018CD0
S1130B4002C0880F991F0A94E2F78095822385BB1F
S1130B50868D978D919581959109978F868F60C029
S1130B6025B381E090E00090A10002C0880F991F96
S1130B700A94E2F7822B85BB53C08130910569F456
S1130B8025B381E090E00090A00002C0880F991F77
S1130B900A94E2F7822B85BB43C0029709F040C058
S1130BA025B3E8E8F0E081E090E0008C02C0880F13
S1130BB0991F0A94E2F78095822385BB80A191A1B5
S1130BC018161906BCF42EEA37E441E25DE360919D
S1130BD0F9007091FA008091FB009091FC000E9452
S1130BE0BA076093F9007093FA008093FB00909326
S1130BF0FC0016C02EEA37E441E25DE36091F9009F
S1130C007091FA008091FB009091FC000E94BB0758
S1130C106093F9007093FA008093FB009093FC00BA
S1130C20FF91EF91BF91AF919F918F917F916F91C0
S1130C305F914F913F912F910F900FBE0F901F9096
S1130C4018951F920F920FB60F9211242F933F9372
S1130C504F935F936F937F938F939F93AF93BF93C0
S1130C60EF93FF9396B380B3917082FB222720F910
S1130C7081E08227981306C086B390B39470817084
S1130C80981317C06091F0007091F1008091F20008
S1130C909091F30020E030E040E85FE30E94BB075E
S1130CA06093F0007093F1008093F2009093F3004E
S1130CB016C06091F0007091F1008091F200909163
S1130CC0F30020E030E040E85FE30E94BA0760935D
S1130CD0F0007093F1008093F2009093F300FF9181
S1130CE0EF91BF91AF919F918F917F916F915F91A0
S1130CF04F913F912F910F900FBE0F901F90189519
S1130D001F920F920FB60F9211242F933F934F937C
S1130D105F936F937F938F939F93AF93BF93EF935F
S1130D20FF932CB1822F90E090936F0180936E011A
S1130D302093F4008736910551F486E690E00E94F2
S1130D40870010926F0110926E010E94AD00809195
S1130D506E0190916F018237910551F485E790E01F
S1130D600E94870010926F0110926E010E949A00F7
S1130D7080916E0190916F018E32910509F081C0CE
S1130D80E0916C01F0916D01EA5FFE4F108286E004
S1130D9091E00E94200A909300018093FF0020912B
S1130DA06A0130916B012115310511F585359105E5
S1130DB034F085E590E0909300018093FF0060910A
S1130DC0FF0070910001072E000C880B990B0E9404
S1130DD0D6086093620070936300809364009093DC
S1130DE0650081E090E090936B0180936A0140C0BC
S1130DF02130310561F5883491053CF088E490E0B8
S1130E00909300018093FF0009C0893E9F4F34F402
S1130E1088EE9FEF909300018093FF006091FF00A4
S1130E2070910001072E000C880B990B0E94D608C4
S1130E306093020170930301809304019093050170
S1130E4082E090E090936B0180936A0111C022309C
S1130E50310571F4909361008093600010926B01EE
S1130E6010926A0181E090E09093FE008093FD006F
S1130E70109200011092FF0010926D0110926C010B
S1130E8017C09C01205331092A30310518F08D32E6
S1130E90910571F420916C0130916D01F901EA5FC3
S1130EA0FE4F80832F5F3F4F30936D0120936C0181
S1130EB010926F0110926E01FF91EF91BF91AF916B
S1130EC09F918F917F916F915F914F913F912F915E
S1130ED00F900FBE0F901F901895ECECF0E0148269
S1130EE015821682178280E090E0A0EAB0E4808741
S1130EF09187A287B387148615861686178627E0FE
S1130F00208F26E0218F138E128E158E148E178E4D
S1130F10168EEAEAF0E01482158216821782808720
S1130F209187A287B387148615861686178625E0CF
S1130F30208F24E0218F138E128E158E148E178E1F
S1130F40168EE8E8F0E014821582168217828087F4
S1130F509187A287B387148615861686178683E041
S1130F60808F82E0818F138E128E158E148E178ED1
S1130F70168E08955058BB27AA270E94D2070C94B6
S1130F804C090E943E0938F00E94450920F039F4CA
S1130F909F3F19F426F40C943B090EF4E095E7FB0B
S1130FA00C943509E92F0E945D0958F3BA176207BA
S1130FB073078407950720F079F4A6F50C947F094C
S1130FC00EF4E0950B2EBA2FA02D0B01B901900160
S1130FD00C01CA01A0011124FF27591B99F0593FA4
S1130FE050F4503E68F11A16F040A22F232F342FEC
S1130FF04427585FF3CF469537952795A795F0403A
S11310005395C9F77EF41F16BA0B620B730B840B4E
S1131010BAF09150A1F0FF0FBB1F661F771F881F06
S1131020C2F70EC0BA0F621F731F841F48F487955E
S113103077956795B795F7959E3F08F0B0CF939550
S1131040880F08F09927EE0F9795879508950E94C9
S1131050110908F481E008950E9440080C944C0999
S11310600E94450958F00E943E0940F029F45F3F70
S113107029F00C94350951110C9480090C943B0906
S11310800E945D0968F39923B1F3552391F3951BED
S1131090550BBB27AA2762177307840738F09F5F95
S11310A05F4F220F331F441FAA1FA9F335D00E2E02
S11310B03AF0E0E832D091505040E695001CCAF76F
S11310C02BD0FE2F29D0660F771F881FBB1F261732
S11310D037074807AB07B0E809F0BB0B802DBF0109
S11310E0FF2793585F4F3AF09E3F510578F00C94D8
S11310F035090C9480095F3FE4F3983ED4F3869558
S113110077956795B795F7959F5FC9F7880F911DF8
S11311109695879597F90895E1E0660F771F881FE4
S1131120BB1F621773078407BA0720F0621B730B97
S1131130840BBA0BEE1F88F7E09508950E94A5086A
S11311406894B1110C94800908950E94650988F08F
S11311509F5798F0B92F9927B751B0F0E1F0660F77
S1131160771F881F991F1AF0BA95C9F714C0B130B8
S113117091F00E947F09B1E008950C947F09672FD4
S1131180782F8827B85F39F0B93FCCF386957795E7
S11311906795B395D9F73EF49095809570956195D0
S11311A07F4F8F4F9F4F0895E89409C097FB3EF4FB
S11311B090958095709561957F4F8F4F9F4F9923A0
S11311C0A9F0F92F96E9BB279395F695879577951E
S11311D06795B795F111F8CFFAF4BB0F11F460FFDE
S11311E01BC06F5F7F4F8F4F9F4F16C0882311F036
S11311F096E911C0772321F09EE8872F762F05C04A
S1131200662371F096E8862F70E060E02AF09A95E4
S1131210660F771F881FDAF7880F9695879597F9D9
S11312200895990F0008550FAA0BE0E8FEEF161673
S11312301706E807F907C0F012161306E407F507C6
S113124098F0621B730B840B950B39F40A2661F03A
S1131250232B242B252B21F408950A2609F4A140DD
S1131260A6958FEF811D811D089597F99F6780E8EA
S113127070E060E008959FEF80EC089500240A94E4
S11312801616170618060906089500240A9412165D
S11312901306140605060895092E0394000C11F490
S11312A0882352F0BB0F40F4BF2B11F460FF04C03D
S11312B06F5F7F4F8F4F9F4F089557FD9058440F96
S11312C0551F59F05F3F71F04795880F97FB991FA1
S11312D061F09F3F79F0879508951216130614065E
S11312E0551FF2CF4695F1DF08C0161617061806EB
S11312F0991FF1CF86957105610508940895E894C6
S1131300BB2766277727CB0197F908950E94110917
S113131008F48FEF08950E949E090C944C090E94D2
S11313203E0938F00E94450920F0952311F00C94F1
S113133035090C943B0911240C9480090E945D0921
S113134070F3959FC1F3950F50E0551F629FF00114
S1131350729FBB27F00DB11D639FAA27F00DB11D2D
S1131360AA1F649F6627B00DA11D661F829F2227B6
S1131370B00DA11D621F739FB00DA11D621F839F3D
S1131380A00D611D221F749F3327A00D611D231F13
S1131390849F600D211D822F762F6A2F11249F5761
S11313A050409AF0F1F088234AF0EE0FFF1FBB1F64
S11313B0661F771F881F91505040A9F79E3F510523
S11313C080F00C9435090C9480095F3FE4F3983E57
S11313D0D4F3869577956795B795F795E7959F5FCD
S11313E0C1F7FE2B880F911D9695879597F908955F
S11313F0A1E21A2EAA1BBB1BFD010DC0AA1FBB1F15
S1131400EE1FFF1FA217B307E407F50720F0A21B86
S1131410B30BE40BF50B661F771F881F991F1A94F3
S113142069F760957095809590959B01AC01BD011D
S1131430CF010895EE0FFF1F0590F491E02D09945C
S1131440FC0188279927E89421912032E9F3293077
S113145010F02E30C8F32B3241F02D3239F4689459
S113146004C00E943E0A820F911D219120532A300C
S1131470C0F31EF4909581959F4F08957AE0979F4D
S1131480902D879F802D910D11240895F894FFCFFE
S11314901900000048426772697020636F6D706CB8
S11314A0657465640072656C6561736520636F6D56
S10B14B0706C657465640000B2
S9030000FC
